:020000040800F2
:1000000000800120C9160008C5160008C3160008A4
:10001000C3160008C3160008C3160008000000003D
:10002000000000000000000000000000C5160008ED
:10003000C516000800000000C5160008D901000818
:10004000C3160008C3160008C3160008C31600082C
:10005000C3160008C3160008C3160008C31600081C
:10006000C3160008C3160008C3160008C31600080C
:10007000C3160008C3160008C3160008C3160008FC
:10008000C3160008C3160008C3160008C3160008EC
:10009000C3160008C3160008C3160008C3160008DC
:1000A000C3160008C3160008C3160008C3160008CC
:1000B000C3160008C3160008C3160008C3160008BC
:1000C000C3160008C3160008C3160008C3160008AC
:1000D000C3160008C3160008C3160008C31600089C
:1000E000C5040008C3160008C3160008C31600089C
:1000F000C3160008C3160008C3160008C31600087C
:10010000C3160008C3160008C3160008C31600086B
:10011000C3160008C3160008C3160008C31600085B
:10012000C3160008C3160008C3160008C31600084B
:10013000C3160008C3160008C3160008C31600083B
:10014000C3160008C3160008C3160008C31600082B
:10015000C3160008C3160008C3160008C31600081B
:10016000C3160008C3160008C3160008C31600080B
:10017000C3160008C3160008C3160008C3160008FB
:10018000C3160008C3160008C3160008C3160008EB
:10019000C3160008C3160008C3160008C3160008DB
:1001A000C3160008C3160008C316000808B509489E
:1001B00001F07AF8042001F0DBFA40F2473001F058
:1001C000CFFA01F0F1FA01F0E7FABDE8084001F0DA
:1001D000DBBA00BF84180008024A136801331360B9
:1001E000704700BF74000020014B1868704700BFC3
:1001F00074000020014B1868704700BF7400002095
:10020000064A11684FF47A7343430A20B3FBF0F3B4
:100210000B4411689942FCD3704700BF7400002062
:1002200010B54FF4C06000F037FF04231D481E4C8A
:100230000022022100F0C7FE1A480422072100F024
:10024000FDFE082317480022022100F0BCFE082210
:100250000721144800F0F2FE40F6110000F01CFFE8
:10026000204601F015FA20464FF4165101F0D4F95A
:100270002046082101F0E6F92046002101F0EBF9C3
:1002800020460C2101F0F3F92046002101F0E9F9A4
:100290002046002101F0F1F92046BDE8104001F0B0
:1002A000F2B900BF000002400044004038B5054DDF
:1002B000441E14F8011F01B938BD284601F0EDF9BC
:1002C000F7E700BF0044004000B595B00A4601467C
:1002D000684600F037F9002802DD6846FFF7E6FFC0
:1002E00015B05DF804FB0FB407B504A951F8040B71
:1002F0000191FFF7E9FF03B05DF804EB04B070472C
:1003000070B50028C0B0BFBF2D238DF800300DF1AF
:1003100001024342A4BF03466A4600210A24013178
:1003200090FBF4F00028FAD154180A26B3FBF6F536
:1003300006FB1533303304F8013D101B08442B46EF
:10034000002DF3D115546846FFF7B0FF40B070BDE3
:1003500010B54FF4C06000F09FFE40F2026000F064
:100360009BFE012319460648002200F02CFEBDE842
:10037000104004484FF400530122002100F023BE36
:10038000000002400008024008B54FF4006000F091
:1003900083FE002319461A464FF4006001F000F86E
:1003A0004FF0804001F005F84FF0804001F006F872
:1003B00000214FF0804001F00DF84FF0804001F037
:1003C00022F901214FF0804001F002F8BDE8084019
:1003D0004FF47A714FF0804000F0FEBF08B54FF443
:1003E000C06000F059FE194801230022022100F0EC
:1003F000EAFD012315480222002100F004FE01223B
:100400001146124800F01AFE062200214FF08040EB
:1004100000F0E4FF00214FF0804001F0A5F8002239
:1004200011464FF0804001F0DEF800214FF080408F
:1004300001F0B4F84FF08040012101F0E9F8BDE887
:1004400008404FF0804000F0BEBF00BF00000240F7
:100450000148012100F0AEBD00000240012110B9A9
:10046000024800F0A1BD014800F09CBD0000024020
:100470000020704708B54FF40051044800F097FD84
:10048000A0F500535842584108BD00BF0008024083
:1004900008B540F68E0000F0FFFD09494FF400500A
:1004A00000F012FD01214FF4005000F0DBFC4FF48E
:1004B000005000F0F3FCBDE80840282001F07AB9B4
:1004C0000008024008B54FF4005000F0F7FC40B1BE
:1004D0000120FFF7C3FFBDE808404FF4005000F0D3
:1004E000E7BC08BD10B5FFF761FEFFF799FE0120DC
:1004F000FFF7B4FFFFF748FFFFF770FF4FF4FA7202
:1005000000214FF0804001F06EF8024C2046FFF7CA
:10051000CDFEFBE74818000800B59BB000910491A0
:100520006FF000410591029105490391694600F081
:100530006FF8009B00221A701BB05DF804FB00BF2F
:100540000802FFFF13460A46014602480068FFF70B
:10055000E3BF00BF000000202DE9F0478E689E42F7
:1005600082460C4690461F4638D88A8912F4906F0E
:1005700032D025680969A5EB0109656905EB4505D8
:1005800005EBD57501334B446D109D4238BF1D46B8
:10059000530531D5294600F09BFB064650B90C2384
:1005A000CAF80030A38943F04003A3814FF0FF3025
:1005B000BDE8F08721694A4600F012FBA38923F4C5
:1005C000906343F08003A381266165614E44A5EBEF
:1005D00009052660A5603E46BE4200D93E46324629
:1005E0002068414600F00AFBA36822689B1B324446
:1005F000A36022600020DBE72A4600F0C3FB06462A
:100600000028E1D12169504600F012FBC7E7000045
:100610002DE9F04F98468B891B069DB007460D4685
:1006200014460ED50B6963B9402100F051FB2860D8
:10063000286120B90C233B604FF0FF30D1E040230C
:100640006B610023099320238DF82930CDF80C80AD
:100650003023DFF8A8818DF82A304FF001092346B6
:100660009A4613F8012B0AB1252AF9D1BAEB040BEB
:100670000BD05B46224629463846FFF76DFF013016
:1006800000F0AA80099A5A4409929AF80030002B87
:1006900000F0A28000234FF0FF32CDE905230AF1DC
:1006A000010A049307938DF853301A935446052298
:1006B00014F8011B514800F043FA049AD8B9D00647
:1006C00044BF20238DF85330110744BF2B238DF8EE
:1006D00053309AF800302A2B15D0079A5446002040
:1006E0004FF00A0C214611F8013B303B092B4ED943
:1006F000B0B1079214E0A0EB080309FA03F3134327
:100700000493A246D2E7039B191D1B680391002B9B
:10071000BBBF5B4242F0020207930793B8BF04924B
:1007200023782E2B0CD163782A2B35D1039B1A1DED
:100730001B680392002BB8BF4FF0FF3302340593C0
:10074000DFF8C8A021780322504600F0F9F940B143
:100750004023A0EB0A0003FA00F0049B034301349A
:10076000049314F8011B26488DF82810062200F087
:10077000E7F9002838D0234B1BBB039B073323F03A
:10078000070308330393099B3344099367E70CFB82
:1007900002320C460120A5E70023013405931946D7
:1007A0004FF00A0C204610F8012B303A092A03D9E1
:1007B000002BC5D00591C3E70CFB012104460123A2
:1007C000F0E703AB00932A460F4B04A93846AFF37A
:1007D0000080421C0646D6D1AB895B063FF52CAFA4
:1007E00009981DB0BDE8F08F03AB00932A46064B75
:1007F00004A9384600F07AF8EBE700BF4F1800086C
:100800005918000800000000590500085518000894
:100810002DE9F047164699468A680B69DDF8208075
:100820009342B8BF1346336091F8432007460C4605
:100830000AB1013333602368990642BF336802333B
:100840003360256815F0060506D104F1190AE3683E
:1008500032689B1AAB4226DC94F84320131E2268B0
:1008600018BF012392062BD404F1430249463846AF
:10087000C04701301ED02368E568326803F00603E4
:10088000042B08BFAD1AA36822690CBF25EAE575E1
:1008900000259342C4BF9B1AED1800261A34B542B6
:1008A0001AD1002008E00123524649463846C04785
:1008B000013003D14FF0FF30BDE8F0870135C6E7C6
:1008C000E1185A1C302081F84300224494F8451066
:1008D00082F843100233C7E70123224649463846CF
:1008E000C0470130E6D00136D9E700002DE9FF47C7
:1008F0000C469146277E0C99782F80469A4604F143
:10090000430207D8622F0AD8002F00F0D880582F52
:1009100000F0A38004F1420684F842703AE0A7F1A7
:100920006303152BF6D801A050F823F085090008C1
:10093000990900081509000815090008150900089B
:10094000150900089909000815090008150900088B
:100950001509000815090008A50A0008C9090008BA
:10096000870A00081509000815090008C70A0008C9
:1009700015090008C909000815090008150900082B
:100980008F0A00080B681A1D1B680A6004F14206F2
:1009900084F842300123A3E0256808682E0600F1A0
:1009A00004030AD505680B60002D03DA2D236D4280
:1009B00084F843305E480A2319E015F0400F0568BB
:1009C0000B6018BF2DB2EFE70B682568181D086093
:1009D000280601D51D6802E06906FBD51D8854482C
:1009E0006F2F0CBF08230A23002184F84310666888
:1009F000A660002EA2BF216821F0040121600DB97C
:100A0000002E4DD01646B5FBF3F103FB1157C75D21
:100A100006F8017D2F46BB420D46F4D9082B0BD1B9
:100A20002368DF0708D5236961689942DEBF302358
:100A300006F8013C06F1FF36921B2261CDF800A0BA
:100A40004B4603AA21464046FFF7E2FE01304CD157
:100A50004FF0FF3004B0BDE8F087354884F84570AA
:100A600023680E681F0656F8045B0E6014D5D9077C
:100A700044BF43F0200323601DB9236823F0200303
:100A800023601023B0E7236843F02003236078231A
:100A9000284884F84530E3E75E0648BFADB2E6E794
:100AA0001646BBE70B68266860691D1D0D6035069C
:100AB0001B6801D5186002E07106FBD51880002381
:100AC00023611646BAE70B681A1D0A601E68626841
:100AD0000021304600F034F808B1801B6060636884
:100AE0002361002384F84330A8E72369324649464E
:100AF0004046D0470130ABD023689B0713D4E06851
:100B0000039B9842B8BF1846A4E7012332464946E2
:100B10004046D04701309BD00135E36803995B1A0A
:100B2000AB42F2DCEBE7002504F11906F5E700BF64
:100B300060180008711800080000000000000000A4
:100B400001F0FF01102A2BDB10F0070F08D010F87E
:100B5000013B013A8B422DD010F0070F42B3F6D182
:100B6000F0B441EA012141EA014122F007047FF09B
:100B700000070023F0E80256083C85EA010586EAF2
:100B8000010685FA47F5A3FA87F586FA47F6A5FA2E
:100B900087F68EB9EED1F0BC01F0FF0102F007023A
:100BA00032B110F8013B013A83EA010313B1F8D1E5
:100BB0000020704701387047002D06BF35460338C6
:100BC000073815F0010F07D1013015F4807F02BFFF
:100BD000013015F4C03F0130F0BC0138704700BF50
:100BE0000A44914200F1FF3300D1704710B511F86B
:100BF000014B03F8014F9142F9D110BD884210B565
:100C000001EB020402D98442234607D8431EA142C5
:100C100008D011F8012B03F8012FF8E70244014630
:100C20008A4200D110BD13F8014D02F8014DF7E7DB
:100C300037B5002948D051F8043C0190002BA1F1B0
:100C40000404B8BFE41800F0D3F8204A01981368F0
:100C5000154633B96360146003B0BDE8304000F05E
:100C6000CDB8A3420BD921686218934204BF1A6819
:100C70005B68636004BF521822602C60ECE71A4680
:100C80005B680BB1A342FAD911685518A5420BD184
:100C9000246821445418A3421160DDD11C685B68AC
:100CA000536021441160D7E702D90C230360D3E7D6
:100CB000256861198B4204BF19685B68636004BFD3
:100CC000491921605460C7E703B030BD78000020A7
:100CD000F8B5CD1C25F0030508350C2D38BF0C25C3
:100CE000002D064601DBA94203D90C233360002006
:100CF000F8BD00F07DF821490A6814469CB9204FE0
:100D00003B6823B92146304600F062F83860294636
:100D1000304600F05DF8431C23D10C23336030468D
:100D200000F06CF8E3E723685B1B17D40B2B03D9A7
:100D300023601C44256004E06368A2420CBF0B6082
:100D40005360304600F05AF804F10B00231D20F0E8
:100D50000700C21ACCD01B1AA350C9E72246646808
:100D6000CCE7C41C24F00304A042E3D0211A30468F
:100D700000F02EF80130DDD1CFE700BF7800002071
:100D80007C000020F8B5074614460E4621B9BDE8A0
:100D9000F8401146FFF79CBF22B9FFF749FF2546EF
:100DA0002846F8BD00F030F8A0420FD22146384660
:100DB000FFF78EFF05460028F2D031462246FFF7A6
:100DC0000FFF31463846FFF733FFE9E73546E7E7DF
:100DD00038B5064D0023044608462B6000F01EF887
:100DE000431C02D12B6803B1236038BD840000206E
:100DF000014800F011B800BF8C000020014800F04D
:100E00000CB800BF8C00002051F8043C181F002BC8
:100E1000BCBF0B58C0187047704770470D4A116827
:100E200010B5034609B90C491160106869460344BE
:100E30008B4206D809490A4C0968A14208D08B4266
:100E400006D900F0FBFC0C2303604FF0FF3010BD0F
:100E50001360FCE780000020940000206400002064
:100E6000ADDEFECA01290BD0022911D039B90A4AD8
:100E7000136803431360536823EA0000506070470F
:100E8000054A136823EA0003136053681843F5E723
:100E9000014A13680343F7E7083C0140034A13681B
:100EA000034313605368184350607047003C01408F
:100EB000014B1860704700BF143C0140014B1B6898
:100EC00018407047143C01402DE9F04F2B4FDFF8DC
:100ED000C0E0DFF8C080DFF8C090DFF8C0A0DFF826
:100EE000C0B084460022012303FA02F010EA0C0F7E
:100EF0001DD02348814237D026D8A0F540608142DA
:100F000034D019D8514503D059450CBF02230023D2
:100F10001C4800EB9204A40002F003052068AD0019
:100F20000F26AE4020EA0600AB4018432060013295
:100F3000102AD8D1BDE8F08F494519D0124B9942FB
:100F40000CBF05230023E3E7B94213D006D871454F
:100F500012D041450CBF08230023D9E70B4B99421F
:100F60000CBF0A230023D3E70623D1E70323CFE7EF
:100F70000423CDE70923CBE70723C9E70024024078
:100F800000180240024E00100014024000280240E7
:100F9000001C0240002002400010024000040240F9
:100FA000000802408161704709048161704700694F
:100FB00008407047436901EA030221EA030141EA5C
:100FC0000241816170472DE9F0410568C46800263F
:100FD0004FF0030E43FA06F7FF070DD577000EFA20
:100FE00007FC01FA07F825EA0C0524EA0C0402FACA
:100FF00007F748EA05053C430136102EEAD10560A3
:10100000C460BDE8F081012941680CBF19439943D0
:10101000F0B5416081680024032643FA04F5ED072A
:1010200007D5650006FA05F721EA070102FA05F57A
:1010300029430134102CF0D18160F0BDF0B5076A6E
:10104000466A00234FF00F0C42FA03F4E50707D578
:101050009D000CFA05F427EA040701FA05F52F4371
:101060000133082BF0D14FF00F0C42FA03F4E407E0
:1010700008D59C00203C0CFA04F526EA050601FA86
:1010800004F426430133102BEFD107624662F0BD12
:101090000368194301607047430903F1804303F576
:1010A0000E3300F01F001968012202FA00F0084315
:1010B00018607047062822D8DFE800F004171C09E2
:1010C0000E1315000F4B1868C0F3406070470D4BAE
:1010D0001868C0F3404070470A4B1868C0F34000DE
:1010E0007047094BF9E7094BF7E7064B1868C0F35F
:1010F00040707047034B1868C0F3C0607047002011
:10110000704700BF00380240703802407438024017
:1011100008B502461046FFF7CDFF0028FAD008BDFB
:1011200006280AD8DFE800F004181D0A0F1416007C
:101130000E4A136843F08073136070470B4A1368BC
:1011400043F48033F8E7094A136843F00103F3E7F7
:10115000074AF9E7074AF7E7044A136843F0805360
:10116000EAE7024A136843F08063E5E7003802408B
:10117000703802407438024006280AD8DFE800F0D0
:1011800004181D0A0F1416000E4A136823F080730A
:10119000136070470B4A136823F48033F8E7094A59
:1011A000136823F00103F3E7074AF9E7074AF7E773
:1011B000044A136823F08053EAE7024A136823F0D5
:1011C0008063E5E70038024070380240743802401E
:1011D000034A136823F0030318431060704700BFED
:1011E00008380240034A136823F4604343EA40305E
:1011F0001060704708380240034A136823F4E05334
:1012000043EA80201060704708380240034A1368A0
:1012100023F0F00343EA00101060704708380240E2
:1012200010B547F6C07404EA811100F03F001B06B8
:1012300003F0706301431943029B5408022B04F12D
:10124000FF344FEA044438BF022304F440341B0740
:1012500003F0E04321431943014B196010BD00BF67
:101260000438024010B5029C022C38BF0224240727
:101270001B0603F0706304F0E04452081C4300F0C6
:101280003F0047F6C073013A03EA81110443120498
:101290000C4302F44032034B144344F480041C60BA
:1012A00010BD00BF0438024037B504460420FFF7E4
:1012B00037FF0420FFF72CFF0020FFF789FFE379B9
:1012C000012B05D10320FFF72BFF0320FFF720FFA1
:1012D00040F61C012C48FFF7DBFEE07B00F0A2FA91
:1012E000207BFFF793FF607BFFF786FFA07BFFF774
:1012F00079FF264A6188136823F080731360E379CD
:10130000A579227920780095012B637931D1FFF7F7
:10131000A9FF1E4A136843F0807313600020FFF793
:10132000F7FEA3685A0527D500F05CFAA3689B0571
:1013300025D500F067FAA06800F04AFA0220FFF70E
:1013400047FF134A1368C3F38103022BFAD1114BF1
:1013500022691A60104B62691A60104BA2691A6008
:10136000E379012B0ED1042003B0BDE83040FFF734
:1013700003BFFFF755FFCCE700F03CFAD6E700F0DB
:1013800049FAD8E703B030BD403802400038024087
:1013900008380240680000206C0000207000002027
:1013A00010B50468134324F45C74194321430160AD
:1013B00010BD036843F0800303607047036823F0A7
:1013C000080303607047036843F00103036070473C
:1013D0008162704701637047C162704706297AD8FD
:1013E000DFE801F00479337963799200836923F0AF
:1013F0000303836183698361836923F070038361DD
:10140000072A68D8DFE802F03304090D1115191D09
:10141000836943F0100383617047836943F02003BD
:10142000F9E7836943F03003F5E7836943F040034C
:10143000F1E7836943F05003EDE7836943F060030C
:10144000E9E7836943F07003E5E7836923F44073B8
:10145000836183698361836923F4E0438361072A9D
:1014600039D8DFE802F004060A0E12161A1E836944
:10147000D1E7836943F48053CDE7836943F4005394
:10148000C9E7836943F44053C5E7836943F4804364
:10149000C1E7836943F4A043BDE7836943F4C043D4
:1014A000B9E7836943F4E043B5E7C36923F0030375
:1014B000C361C369C361C36923F07003C361072AB1
:1014C00009D8DFE802F03304090D1115191DC369AD
:1014D00043F01003C3617047C36943F02003F9E789
:1014E000C36943F03003F5E7C36943F04003F1E714
:1014F000C36943F05003EDE7C36943F06003E9E7D4
:10150000C36943F07003E5E7C36923F44073C36123
:10151000C369C361C36923F4E043C361072ADAD80E
:10152000DFE802F004060A0E12161A1EC369D1E79C
:10153000C36943F48053CDE7C36943F40053C9E75B
:10154000C36943F44053C5E7C36943F48043C1E72B
:10155000C36943F4A043BDE7C36943F4C043B9E79B
:10156000C36943F4E043B5E7062912D8DFE801F088
:10157000041109110D111200836943F008038361FE
:101580007047836943F40063F9E7C36943F00803D4
:10159000C3617047C36943F40063F9E7062909D8BA
:1015A000DFE801F0041509190D1D1100036A43F06D
:1015B000010303627047036A43F01003F9E7036A0B
:1015C00043F48073F5E7036A43F48053F1E7036A59
:1015D00043F00403EDE7036A43F04003E9E7036ADD
:1015E00043F48063E5E706290CD8DFE801F0040B3B
:1015F000060B080B0A004263704782637047C263A0
:10160000704702647047436C43F40043436470477F
:101610004369194341617047074A084B10B520F4EC
:10162000806494421B6804BF054B1B6803EB5103A5
:10163000B3FBF1F1816010BD001001406C0000208F
:1016400070000020C36808290CBF23F4805343F4C2
:101650008053C3607047036923F440531943016109
:101660007047C36823F4C0631943C1607047C368FF
:1016700023F00C031943C1607047436923F440739E
:10168000194341617047C36843F40053C360704716
:10169000C36823F40053C360704713B50446019137
:1016A00000F00BF80199204602B0BDE8104000F0B0
:1016B00000B8C1F308014160704703681B06FCD500
:1016C0007047FEE77047000038B51A4A1A4B1B49AD
:1016D0008B421BD31A4A002193421CD3194A1A4C3D
:1016E00013681A4D43F400731360536F43F470038F
:1016F0005367AC4212D3164C164DAC4212D3FEF7D0
:10170000F1FE154C154DAC4210D338BD52F8040B08
:1017100043F8040BDCE743F8041BDDE754F8043B13
:101720009847E6E754F8043B9847E6E754F8043B4B
:101730009847E8E7381900080000002074000020EE
:101740009400002014ED00E0381900083819000852
:101750003819000838190008381900083819000825
:10176000024B20F07F401860704700BF14E000E09B
:10177000044A136800F0040023F0040303431360D9
:10178000704700BF10E000E0024A136843F0020314
:101790001360704710E000E0024A136843F0010351
:1017A0001360704710E000E0014B00221A607047A0
:1017B00018E000E0054B420903EB820300F01F0034
:1017C000012202FA00F01860704700BF00E100E05B
:1017D000034A136823F00F0318431060704700BFDB
:1017E000003C0240024A136843F480631360704770
:1017F000003C0240024A136823F480631360704780
:10180000003C0240024A136843F4007313607047BF
:10181000003C0240024A136823F4007313607047CF
:10182000003C0240044A1368800323F4404380B222
:1018300018431060704700BF00700040014B1868EB
:10184000704700BF00000020746573740D0A002308
:101850002D302B2000686C4C0065666745464700BC
:1018600030313233343536373839414243444546D6
:10187000003031323334353637383961626364656C
:10188000660000001000500104070000020600007E
:101890000004000300BD010580DE800200BD0105DB
:1018A00010005001020700000506000000050403B7
:1018B000007A030A80DE800200BD01051000680185
:1018C0000208000005060000000504030095BA0A9E
:1018D00040A5AE02804A5D05000000000000000047
:1018E00000000000000000000000000000000000F8
:1018F00000000000000000000000000000000000E8
:1019000000000000000000000000000000000000D7
:1019100000000000000000000000000000000000C7
:1019200000000000000000000000000000000000B7
:081930000000000000000000AF
:101938000400002000000000F8180008181900082A
:10194800D818000800000000000000000000000097
:10195800000000000000000000000000000000007F
:10196800000000000000000000000000000000006F
:10197800000000000000000000000000000000005F
:10198800000000000000000000000000000000004F
:1019980000000000ADDEFECA0024F4000024F400BC
:0419A8000024F40023
:04000005080016C910
:00000001FF
